:400000000010002011000000E1050000E105000010B500F0EDFAC04670B50F4C23688022D20213432360182000F066FB22680B4B134023600A4A0B4B1A60063A0A4B1A6045
:40004000002525600949092000F022FB092000F013FB074B1D6070BD00010B40FFFFFBFF0600008004010B4008010B40090900000C020B4010B572B600240FE01D4862008B
:40008000131959000B00411889881A5AC31858880004104300F09EFA0134E4B2012CEDD9EE221202144B1A6099231B04134A1360134A1360134A1360134A1360134A11787C
:4000C00006230B43DBB213708023114A13601149114A11601149124A1160124A1360D8221204114B1A60114A114B1A60FFF794FF10BDC0469C0F00000C00014000500F40E2
:4001000010500F4020500F4030500F4000700F4000000440890D58000800044049121800080104400002044008020440860D00000803044010B5064C2378002B07D1054B0A
:40014000002B02D0044800E000BF0123237010BD6001002000000000B40D0000084B10B5002B03D00749084800E000BF07480368002B00D110BD064B002BFBD09847F9E7F3
:400180000000000064010020B40D0000C00000200000000010B5002405E0A200034BD358012098470134022CF7DD10BD180E000070B500251DE0104EAC000620A3599847B4
:4001C0003419E3680020984700240AE0A3000A4AD3189B69984763001B19084AD31858550134032CF2DDAA00034BD358012098470135022DDFDD70BD180E0000C400002066
:4002000010B50B2832D880001A4B1B589F461A4800F0DAFB2AE0194800F0D6FB26E0184800F0D2FB22E0174800F0CEFB1EE0164800F0CAFB1AE0154800F0C6FB16E0144884
:4002400000F0C2FB12E0134800F0BEFB0EE0124800F0BAFB0AE0114800F0B6FB06E0104800F0B2FB02E00F4800F0AEFB00F0BAFB10BDC046B80D0000580E00006C0E000040
:40028000800E0000940E0000A80E0000BC0E0000D00E0000E40E0000F80E00000C0F0000200F0000340F000010B5002306E0184AD15C184AD25C914204D10133022BF6DD62
:4002C000012300E00023002B15D0134800F07CFB00F088FB0022114B1A73002000F066FB002000F087FB002000F090FBFA20800000F0E0F907E00A4800F066FB00F072FB9F
:400300000122064B1A730022014BDA7010BDC0467C010020400E0000480F0000C4000020580F000070B50500002412E0802323412B4203D0012000F0EFFB02E0002000F030
:40034000EBFB012000F0DCFB002000F0D9FB0134E4B2072CEAD970BD70B505000C001600072805D9FF20FFF7DDFFFF20FFF7DAFF0120A840C043C0B2FFF7D4FF002E07D059
:40038000094B1C1923797F201840FFF7CBFF04E0054B1C192079FFF7C5FF012000F0A4FB002000F0A1FB70BD400E000010B504000B2862D88300384AD3589F460022010060
:4003C0000020FFF7C9FF002000F0F0FA012000F011FB012000F01AFB5DE0002201000020FFF7BAFF012000F0E1FA002000F002FB012000F00BFB4EE0002203210020FFF719
:40040000ABFF002221000020FFF7A6FF012000F0CDFA012000F0EEFA002000F0F7FA3AE0002201000020FFF797FF002000F0BEFA002000F0DFFA012000F0E8FA2BE0002288
:4004400001000020FFF788FF002000F0AFFA012000F0D0FA002000F0D9FA1CE0002201000020FFF779FF012000F0A0FA002000F0C1FA002000F0CAFA0DE000220021082018
:40048000FFF76AFF012000F091FA012000F0B2FA012000F0BBFA10BDE80D000070B562B6012288210020FFF757FF00F08BFA00F099FA444800F088FA00F094FA424800F099
:4004C00083FA00F08FFAFFF765FE002000F06EFA002000F08FFA002000F098FAFF26FFF767FE0025002046E06B005B193749CB189B5C002B32D1032D01D1012A0DD0032D6E
:4005000001D1002A0BD0032D01D1022A09D06C002C19A2180132D4B204E0002402E00A2400E00B24A6421FD02000FFF769FE274B1B7B002B0CD0264AD378D4540133DBB28B
:40054000D370022B12D9FFF7AFFE260001200FE02000FFF72BFF2600012009E0013200E00022022AC0DD03E0012001E026000120002802D10135032DF2DD00281ED1FF2E39
:400580001CD0124B1B7B002B09D000F00FFA002000F030FA002000F039FAFF260EE0002200210820FFF7D8FE012000F0FFF9012000F020FA012000F029FAFF26322000F0C9
:4005C00079F88CE7680F0000800F0000C40000207C01002010B50A00002100F0E3FB10BD10B500F0B3FB03680C2B00D1FEE7FEE770B50F4E0F4D13E029686B68AC680022FA
:4006000002E001C901C30432A242FAD1E868002202E0002102C304328242FAD11035013E002EE9D100F098FBFFF738FFFEE7C04601000000FC0F000010B500230AE0032B53
:4006400003D89A000949505800E009489900094A885001332F2BF2D9FFF70CFD8022D205116801230B43136010BDC04600000000E1050000000000201F2318401E3B834058
:40068000014A13607047C04600E100E001BE704770B504000D001F2802D90020FFF7F6FF1034A40080239B059C4664442068256070BDC04610B5040006E0084B586800F07E
:4006C00037FA074B9C46644480231B029C42F4D8024B9868604300F02BFA10BDD40000200080FFFF10B5034B1B7B584300F020FA10BDC046D4000020F0B557464E46C0B4E0
:4007000083B0040000F01EFA0190E71E2D2F74D83F4B1B78DBB29C4208D83E4B1B78DBB29A463D4B1B78DBB2994631E03B4B1B78DBB29C4208D83A4B1B78DBB29A46394B46
:400740001B78DBB2994623E0374B1B78DBB29C4208D8364B1B78DBB29A46354B1B78DBB2994615E0334B1B78DBB29C4208D8324B1B78DBB29A46314B1B78DBB2994607E0E7
:400780002F4B1B78DBB29A462E4B1B78DBB299462D4BDE5D2F2E09D92A2C07D919222B4B1A60052000F0C4F9192503E0274B1D683F231D40B54206D9234BDA5D234B1A60E8
:4007C000052000F0B5F91F4B9C4664442378DBB21F4A13601F4B52461A601F4B4A461A600520FFF77FFFB5420AD2174BDA5D174B1A60052000F09CF902E00020FFF746FF86
:40080000019800F0A3F903B00CBC91469A46F0BDC0F1FF0FC1F1FF0FC2F1FF0FC3F1FF0FC4F1FF0FC5F1FF0FC6F1FF0FC7F1FF0FC8F1FF0FC9F1FF0FCAF1FF0FCBF1FF0F7E
:40084000CCF1FF0FCDF1FF0FA80F00002CFF0B4028FF0B401CFF0B4020FF0B40034B1868C0231B02184000D00120704700010B4010B500F067F9044A1368C02109020B4340
:40088000136000F063F910BD00010B4010B500F059F908490A68084B1A408024E40122430A600A6813408022120213430B6000F04DF910BD00010B40FF3FFFFF70B50500A0
:4008C00000F040F90400FFF7C9FF002803D0FFF7DDFF012100E0002108482840084A1568084B2B40184310601368012901D1FFF7BFFF200000F02AF970BDC0460404040070
:4009000010020B40FBFBFBFF10B5244B1B685B0715D5234B1B685B070ED5224BD969042001401F4C22688A432260DA698243DA611B69002B00D098470420FFF7BFFF174BFE
:400940001B685B0518D5164B1B685B0510D5154BD9698022D2001140114802688A430260D969114A0A40DA615B69002B00D098478020C000FFF7A2FF084B1B685B030CD559
:40098000074B1B685B0304D5064B9B69002B00D098478020C002FFF791FF10BD10020B40E800002080010020FFFBFFFF04490A68D2B240239A43800118401043086070477B
:4009C000000104407047C04670B505000078012404E000F0C5F8285D0134E4B20028F8D170BDC04610B50D2000F0BAF80A2000F0B7F810BD04490A68D2B204239A43800038
:400A000018401043086070470000044004490A68D2B208239A43C000184010430860704700000440024B1868400801231840704704010440024B1868800801231840704776
:400A400004010440024B1868C00801231840704704010440024B1868000901231840704704010440034A136807218B43184310607047C04608000440044A1368DBB20121C0
:400A80008B430840184310607047C04600000440034A136838218B43C0001843106070470800044004490A68D2B202239A434000184010430860704700000440034A13687C
:400AC00007218B43184310607047C04608010440044A1368DBB201218B430840184310607047C0460001044004490A68D2B240239A438001184010430860704700020440BC
:400B000004490A68D2B240239A438001184010430860704700000440044A1368DBB201218B430840184310607047C046000304400230800804D0C0460138FDD1C046C0469F
:400B4000C0467047EFF3108072B6704780F310887047C046000000000000000000000000FEB5494652465B460EB407462E4909688A462E4A12682E48022100F05BF803008C
:400B80002A480068C0182A4900F054F806001F3EB346234A126801219140C9430C0001250026FFF7CFFF814651460B6823400B6058460430FFF7BCFF3800F04028409040B4
:400BC0000B68234003430B605846FFF7B1FF0136072EF1D900200130012090400B68234003430B6058460630FFF7A2FF4846FFF7ADFFC046C046C0460EBC894692469B462C
:400C0000FEBDC046C046C046C046C046C046C046C046C046C046C046C046C046C046C046F4000020F0000020EC000020E400002000C20100002243088B4274D303098B424E
:400C40005FD3030A8B4244D3030B8B4228D3030C8B420DD3FF22090212BA030C8B4202D31212090265D0030B8B4219D300E0090AC30B8B4201D3CB03C01A5241830B8B42F3
:400C800001D38B03C01A5241430B8B4201D34B03C01A5241030B8B4201D30B03C01A5241C30A8B4201D3CB02C01A5241830A8B4201D38B02C01A5241430A8B4201D34B0286
:400CC000C01A5241030A8B4201D30B02C01A5241CDD2C3098B4201D3CB01C01A524183098B4201D38B01C01A524143098B4201D34B01C01A524103098B4201D30B01C01ABB
:400D00005241C3088B4201D3CB00C01A524183088B4201D38B00C01A524143088B4201D34B00C01A5241411A00D20146524110467047FFE701B5002000F006F802BDC04631
:400D40000029F7D076E770477047C046014B18687047C046580100200E4B70B500251E000D4CE41AA410A54204D0AB00F35898470135F8E700F030F9084B00251E00084C3C
:400D8000E41AA410A54204D0AB00F35898470135F8E770BDE40F0000E40F0000E40F0000EC0F000003008218934202D019700133FAE77047000000000E020000160200001A
:400DC0001E020000260200002E020000360200003E020000460200004E020000560200005E020000660200003E040000BC030000DA030000F8030000200400003E0400000C
:400E00005C040000BC030000DA03000002040000200400005C040000650A0000910A0000BD0A0000790A0000A50A0000D10A0000250A0000350A0000450A0000550A000032
:400E400001020300C0F9A4B0999282F88090BF8883C6A1868E000000427574746F6E2030207072657373656400000000427574746F6E2031207072657373656400000000A0
:400E8000427574746F6E2032207072657373656400000000427574746F6E2033207072657373656400000000427574746F6E203420707265737365640000000042757474E4
:400EC0006F6E2035207072657373656400000000427574746F6E2036207072657373656400000000427574746F6E2037207072657373656400000000427574746F6E203805
:400F0000207072657373656400000000427574746F6E2039207072657373656400000000427574746F6E202A207072657373656400000000427574746F6E202320707265AE
:400F4000737365640000000041636365737320616C6C6F77656400004163636573732064656E696564000000536F667477617265205472616E736D69742055415254000074
:400F8000456E7465722070617373776F726420746F20756E6C6F636B0000000000300F40000400400F400004030405060708090A0B0C0E0F101112131415161718191B1C6F
:400FC0001D1E1F2021222325262728292A2B2E2F3031323334354300F8B5C046F8BC08BC9E4670475D01000039060000F8B5C046F8BC08BC9E4670473501000010100000AB
:40100000C0000020A00000004000000000000000000000000102030405060708090A000B01000000010000000000E02EC05D00001800000000366E01040404000002044072
:4010400002000000070000000000000000000000000000000000000000000000000000000000000000000000D60F0000000000000000000000000000000000000000000082
:4010800000000000000000000000000000000000000000000000000000000000000000000000000000000000F8000020000000000000000000000000000000000000000018
:4010C00000000000000000000000000000000000000000000000000000000000000000000000000000000000000000000000000000000000000000000000000000000000F0
:4011000000000000000000000000000000000000000000000000000000000000000000000000000000000000000000000000000000000000000000000000000000000000AF
:40114000000000000000000000000000000000000000000000000000000000000000000000000000000000000000000000000000000000000000000000000000000000006F
:40118000000000000000000000000000000000000000000000000000000000000000000000000000000000000000000000000000000000000000000000000000000000002F
:0200000490303A
:0200000067296E
:0200000490402A
:200000000000000000000000000000000000000000000000000000000000000000000000E0
:0200000490501A
:0C000000000204C81193110104CD78BC6B
:0200000490600A
:0100000001FE
:00000001FF