:400000000010002011000000390900003909000010B500F099FCC04670B50F4C23688022D20213432360182000F02CFE22680B4B134023600A4A0B4B1A60063A0A4B1A6016
:40004000002525600949092000F0E8FD092000F0D9FD074B1D6070BD00010B40FFFFFBFF0600008004010B4008010B40BD0E00000C020B4010B572B60122294B1A700024D7
:400080000FE028486200131959000B00411889881A5AC31858880004104300F047FC0134E4B2012CEDD91F490C311F48643000F023FCEE2212021D4B1A6099231B041C4A18
:4000C00013601C4A13601C4A13601C4A136001211B4B196002221B4B1A601B4803783A32934314221343DBB20370184A107816230343DBB213700322154B1A60154A164B19
:400100001A60164B1960164A164B1A60C0225203154B1A60154A164B1A60FFF77DFF10BD1C700F4064110000E41100000C00014000500F4010500F4020500F4030500F4038
:400140002000004000800F4001700F4000700F40000004402400180008000440000104404C1200000801044008020440860D00000803044010B5064C2378002B07D1054BE0
:40018000002B02D0044800E000BF0123237010BD580100200000000018110000084B10B5002B03D00749084800E000BF07480368002B00D110BD064B002BFBD09847F9E753
:4001C000000000005C01002018110000C00000200000000010B5002405E0A200034BD358012098470134022CF7DD10BD1C11000010B50D4B1B78002B14D10B4B5B78002B4B
:4002000010D1094B9B78002B0CD1084BDC79072304E05A1E0549885CC8541300042BF8DC024B1C7110BDC04674010020C40000200122104B5A7000230DE00E4AD218117992
:400240000D4AD218127B914204D00222094B5A70002308E00133032BEFDDF9E7054AD218002111710133032BF8DD024B00221A721A707047740100201C11000070B5194B14
:400280009B78002B2DD0174B5B7A002B0ED1164B1B7A002B03D10022124B9A7021E0013B114A13723B220F4B5A7202E0013B0D4A53720D4C257A0A21280000F063FE20703E
:4002C0000A21280000F0E4FE6170064B5D7A0A21280000F057FEA0700A21280000F0D8FEE17070BD74010020C400002010B5054B01229A700521044A117200225A72FFF70B
:40030000BDFF10BD74010020C4000020104B01221A7000225A70002304E00D4AD218002111710133032BF8DD0022094B1A72002303E00F21074AD1540133032BF9DD042398
:4003400003E01121034AD1540133072BF9DD704774010020C400002070B5002521E0124EAC000620A359984734192369002098470A2000F07DFC00240BE0A3000A4AD318D6
:40038000DB69984763001B19084AD3185B1918730134032CF1DDAA00034BD358012098470135022DDBDD70BD1C110000C400002070B50500002418E0802323412B4203D00A
:4003C000012000F013FC02E0002000F00FFC012000F000FC012000F04BFC002000F0FAFB012000F045FC0134E4B2072CE4D970BD10B503000C0001209840C043C0B2FFF704
:40040000D7FF112C06D80B4B1C192C23E05CFFF7CFFF02E0FF20FFF7CBFF012000F0CEFB012000F025FC002000F0C8FB012000F01FFC10BD1C11000010B51D4B5B78002B00
:4004400006D11B4B987A1B4B195CFFF7D1FF24E0012B0AD1164B987ADB7A002B01D0102100E01121FFF7C4FF17E0022B15D1104B987A0123034003D10D4AD27A002A05D16C
:40048000002B07D00A4BDB7A002B03D11021FFF7AFFF02E01121FFF7ABFF054A937A0133DBB29372072B02D90022014B9A7210BD74010020C400002030B583B062B600F0F9
:4004C000DBFA464800F00AFBFFF784FE00250C24FFF742FF424B1B78002B00D084E0404A5278002A00D07FE03E4B1B7B002B05D1012C03D001323B4B1A700124394B5B7B92
:40050000002B05D1022C03D00222364B1A700224344B9B7B002B05D1032C03D00322314B1A7003242F4BDB7B002B05D1042C03D004222C4B1A7004242A4B1B7C002B05D14A
:40054000052C03D00522274B1A700524254B5B7C002B05D1062C03D00622224B1A700624204B9B7C002B05D1072C03D007221D4B1A7007241B4BDB7C002B05D1082C03D001
:400580000822184B1A700824164B1B7D002B05D1092C03D00922134B1A700924114B9B7D002B05D1002C03D000220E4B1A7000240C4B5B7D002B04D10A2C02D0FFF796FE58
:4005C0000A24084BDB7D002B00D0DBE00B2C00D1D8E0FFF79BFE0B24D4E0C0463904000074010020C4000020002B00D1CAE0B84B1B7B002B0ED1012C0CD0B64B1B7A032B68
:4006000008D8B44AD01801210171B148C154013313720124AE4B5B7B002B0ED1022C0CD0AC4B1B7A032B08D8AA4AD01802210171A748C154013313720224A54B9B7B002B72
:400640000ED1032C0CD0A34B1B7A032B08D8A14AD018032101719E48C1540133137203249B4BDB7B002B0ED1042C0CD0994B1B7A032B08D8974AD018042101719448C15491
:40068000013313720424924B1B7C002B0ED1052C0CD0904B1B7A032B08D88E4AD018052101718B48C154013313720524884B5B7C002B0ED1062C0CD0864B1B7A032B08D8F8
:4006C000844AD018062101718148C1540133137206247F4B9B7C002B0ED1072C0CD07D4B1B7A032B08D87B4AD018072101717848C154013313720724754BDB7C002B0ED164
:40070000082C0CD0734B1B7A032B08D8714AD018082101716E48C1540133137208246C4B1B7D002B0ED1092C0CD06A4B1B7A032B08D8684AD018092101716548C15401336C
:4007400013720924624B9B7D002B0ED1002C0CD0604B1B7A032B08D85E4AD018002101715B48C154013313720024594BDB7D002B08D10B2C06D0574B1B7A042B02D1FFF7AE
:4007800057FD0B24524B1B7B012B02D1012C00D10B344F4B5B7B012B02D1022C00D10A344B4B9B7B012B02D1032C00D10934484BDB7B012B02D1042C00D10834444B1B7C68
:4007C000012B02D1052C00D10734414B5B7C012B02D1062C00D106343D4B9B7C012B02D1072C00D105343A4BDB7C012B02D1082C00D10434364B1B7D012B02D1092C00D10D
:400800000334334B5B7D012B02D10A2C00D102342F4B9B7D012B02D1002C00D10C342C4BDB7D012B02D10B2C00D101340135294B9B78002B0FD0632D0DD9264AD3680133FA
:40084000D360092B06D90022224BDA60FFF716FD002500E000251F4B1B78002B12D11D4B5B78002B0ED11B4B9B78002B0AD1194A136901331361312B04D90022154B1A61AA
:40088000FFF7B6FC134B5B78002B2ED0114A536901335361182B06D9130000225A61D97A4A424A41DA720B4A936901339361F422FF32934219D9074B00229A615A70083275
:4008C00005494031684600F015FC00230BE0C046C4000020740100201C1100006A46D15C044AD1540133072BF8DD0A2000F0A8F9EEE5C046C4000020F0B50025002711E0EB
:40090000BB00C658F3B2FF22964308E06A008A181478A419527822700135013BDBB2002BF4D10137072FEBD9F0BDC04610B50A00002100F0E8FB10BD10B500F0AFFB036878
:400940000C2B00D1FEE7FEE770B50F4E0F4D13E029686B68AC68002202E001C901C30432A242FAD1E868002202E0002102C304328242FAD11035013E002EE9D100F094FBFB
:40098000FFF79AFDFEE7C04601000000BC12000010B500230AE0032B03D89A000949505800E009489900094A885001332F2BF2D9FFF760FB8022D205116801230B4313600B
:4009C00010BDC046000000003909000000000020034A117880235B420B43DBB21370704771000F40014B18707047C04682000F40014B1878C0B2704762000F4010B50100F9
:400A0000014800F0F1F910BD20000F4010B5024800F0F4F910BDC04640000F4010B50100014800F0E1F910BD00000F4010B501E0FFF7ECFFFFF7DCFF0307F9D410BDC04612
:400A400010B50B4C2000FFF7D9FF2000FFF7E6FF00F090FA074A117810230B43DBB2137000F08CFAFFF7E2FF0020FFF7BBFF10BDBF5D000092000F4010B5064B1B78002BD1
:400A800004D1FFF7DDFF0122024B1A70FFF7A0FF10BDC04690010020014B18647047C0460000002010B5040000F064FA044A1368C0218B43A4011C43146000F05FFA10BDBA
:400AC00000E400E00122014B1A60704700E100E00122014B1A60704780E100E010B50400FFF7F6FF2000FFF7D7FF0320FFF7DAFFFFF7E8FF10BDC046024B18684008012375
:400B00001840704704010440024B1868800801231840704704010440024B1868C00801231840704704010440024B1868000901231840704704010440034A136807218B436B
:400B4000184310607047C04608000440044A1368DBB201218B430840184310607047C04600000440034A136838218B43C0001843106070470800044004490A68D2B2022362
:400B80009A434000184010430860704700000440034A136807218B43184310607047C04608010440044A1368DBB201218B430840184310607047C0460001044004490A685D
:400BC000D2B240239A43800118401043086070470002044004490A68D2B240239A438001184010430860704700000440044A1368DBB201218B430840184310607047C04678
:400C0000000304401F2318401E3B8340014A13607047C04600E100E001BE704770B504000D001F2802D90020FFF7F6FF1034A40080239B059C4664442068256070BDC046AD
:400C400010B5040006E0084B586800F089F9074B9C46644480231B029C42F4D8024B9868604300F07DF910BDDC0000200080FFFF10B5034B1B7B584300F072F910BDC046EB
:400C8000DC000020F0B557464E46C0B483B0040000F070F90190E71E2D2F74D83F4B1B78DBB29C4208D83E4B1B78DBB29A463D4B1B78DBB2994631E03B4B1B78DBB29C4213
:400CC00008D83A4B1B78DBB29A46394B1B78DBB2994623E0374B1B78DBB29C4208D8364B1B78DBB29A46354B1B78DBB2994615E0334B1B78DBB29C4208D8324B1B78DBB2BB
:400D00009A46314B1B78DBB2994607E02F4B1B78DBB29A462E4B1B78DBB299462D4BDE5D2F2E09D92A2C07D919222B4B1A60052000F016F9192503E0274B1D683F231D4031
:400D4000B54206D9234BDA5D234B1A60052000F007F91F4B9C4664442378DBB21F4A13601F4B52461A601F4B4A461A600520FFF77FFFB5420AD2174BDA5D174B1A6005200D
:400D800000F0EEF802E00020FFF746FF019800F0F5F803B00CBC91469A46F0BDC0F1FF0FC1F1FF0FC2F1FF0FC3F1FF0FC4F1FF0FC5F1FF0FC6F1FF0FC7F1FF0FC8F1FF0FF0
:400DC000C9F1FF0FCAF1FF0FCBF1FF0FCCF1FF0FCDF1FF0F681200002CFF0B4028FF0B401CFF0B4020FF0B40CBB203700B0ADBB24370090CC9B281707047C0460378427817
:400E000012021A4383781B041A4310007047C046034B1868C0231B02184000D00120704700010B4010B500F0A5F8044A1368C02109020B43136000F0A1F810BD00010B4079
:400E400010B500F097F808490A68084B1A408024E40122430A600A6813408022120213430B6000F08BF810BD00010B40FF3FFFFF70B5050000F07EF80400FFF7C9FF0028E8
:400E800003D0FFF7DDFF012100E0002108482840084A1568084B2B40184310601368012901D1FFF7BFFF200000F068F870BDC0460404040010020B40FBFBFBFF10B5244BFF
:400EC0001B685B0715D5234B1B685B070ED5224BD969042001401F4C22688A432260DA698243DA611B69002B00D098470420FFF7BFFF174B1B685B0518D5164B1B685B05A6
:400F000010D5154BD9698022D2001140114802688A430260D969114A0A40DA615B69002B00D098478020C000FFF7A2FF084B1B685B030CD5074B1B685B0304D5064B9B6946
:400F4000002B00D098478020C002FFF791FF10BD10020B40F000002094010020FFFBFFFF0230800804D0C0460138FDD1C046C046C0467047EFF3108072B6704780F3108808
:400F80007047C046002243088B4274D303098B425FD3030A8B4244D3030B8B4228D3030C8B420DD3FF22090212BA030C8B4202D31212090265D0030B8B4219D300E0090A9E
:400FC000C30B8B4201D3CB03C01A5241830B8B4201D38B03C01A5241430B8B4201D34B03C01A5241030B8B4201D30B03C01A5241C30A8B4201D3CB02C01A5241830A8B4247
:4010000001D38B02C01A5241430A8B4201D34B02C01A5241030A8B4201D30B02C01A5241CDD2C3098B4201D3CB01C01A524183098B4201D38B01C01A524143098B4201D3BA
:401040004B01C01A524103098B4201D30B01C01A5241C3088B4201D3CB00C01A524183088B4201D38B00C01A524143088B4201D34B00C01A5241411A00D2014652411046C8
:401080007047FFE701B5002000F006F802BDC0460029F7D076E770477047C046014B18687047C046540100200E4B70B500251E000D4CE41AA410A54204D0AB00F3589847EF
:4010C0000135F8E700F0E8F8084B00251E00084CE41AA410A54204D0AB00F35898470135F8E770BDA4120000A4120000A4120000AC120000002310B59A4203D0CC5CC454E6
:401100000133F9E710BD03008218934202D019700133FAE77047000000000000390B0000650B0000910B0000010203044D0B0000790B0000A50B0000F90A0000090B000038
:40114000190B0000290B0000C0F9A4B0999282F880908883C6A1868E00FF0000000000000504000000300F40000400400F400004820D405149FF4AFF4BFF4F0150185A04A0
:401180005D095F016040624064406540668068806A806C806E80C041C9FFCAFFCBFFCD83CE03CF01D018D280DA04DB04DD99DF01E040E240E440E540E680E880EA80EC8083
:4011C000EE80420246824801740176807780D098D2080E012E01300136013E01404145EC4720482349FF4AFF4BFF4D834E034F015018540158045A045B045C095D995F0142
:401200006040624064406540668068806A806C806E80060217801E801F8046824D044F0156025D045E805F0187809A809B809E02C080C480D090D6D06F20DA808720A72098
:40124000E61002011101000001000F4028300F4008310F4020320F4013330F4002400F4003410F4002600F40030405060708090A0B0C0E0F101112131415161718191B1C6D
:401280001D1E1F2021222325262728292A2B2E2F3031323334354300F8B5C046F8BC08BC9E4670479D01000091090000F8B5C046F8BC08BC9E46704775010000D01200004B
:4012C000C0000020980000006000000000000000000000000000000005040000050000000102030405060708090A000B010000000000E02EC05D00001800000000366E01DD
:4013000004040400000000000000000000000000000000000000000000000000000000000000000096120000000000000000000000000000000000000000000000000000F9
:40134000000000000000000000000000000000000000000000000000000000000000000000000000F400002000000000000000000000000000000000000000000000000059
:40138000000000000000000000000000000000000000000000000000000000000000000000000000000000000000000000000000000000000000000000000000000000002D
:4013C00000000000000000000000000000000000000000000000000000000000000000000000000000000000000000000000000000000000000000000000000000000000ED
:4014000000000000000000000000000000000000000000000000000000000000000000000000000000000000000000000000000000000000000000000000000000000000AC
:40144000000000000000000000000000000000000000000000000000000000000000000000000000000000000000000000000000000000000000000000000000000000006C
:0200000490303A
:020000002E3997
:0200000490402A
:200000000000000000000000000000000000000000000000000000000000000000000000E0
:0200000490501A
:0C000000000204C81193110104CE3FCC93
:0200000490600A
:0100000001FE
:00000001FF