:400000000010002011000000C9040000C904000010B500F061FAC04670B50F4C23688022D20213432360182000F0F4FB22680B4B134023600A4A0B4B1A60063A0A4B1A6075
:40004000002525600949092000F0B0FB092000F0A1FB074B1D6070BD00010B40FFFFFBFF0600008004010B4008010B404D0A00000C020B4010B572B60122294B1A700024BF
:400080000FE028486200131959000B00411889881A5AC31858880004104300F00FFA0134E4B2012CEDD91F490C311F48643000F0EBF9EE2212021D4B1A6099231B041C4A8D
:4000C00013601C4A13601C4A13601C4A136001211B4B196002221B4B1A601B4803783A32934314221343DBB20370184A107816230343DBB213700322154B1A60154A164B19
:400100001A60164B1960164A164B1A60C0225203154B1A60154A164B1A60FFF77DFF10BD1C700F40BC0B00003C0C00000C00014000500F4010500F4020500F4030500F4093
:400140002000004000800F4001700F4000700F40000004402400180008000440000104404C1200000801044008020440860D00000803044010B5064C2378002B07D1054BE0
:40018000002B02D0044800E000BF0123237010BD58010020000000007C0B0000084B10B5002B03D00749084800E000BF07480368002B00D110BD064B002BFBD09847F9E7F5
:4001C000000000005C0100207C0B0000C00000200000000010B5002405E0A200034BD358012098470134022CF7DD10BD800B000070B500251DE0104EAC000620A359984751
:400200003419E3680020984700240AE0A3000A4AD3189B69984763001B19084AD31858550134032CF2DDAA00034BD358012098470135022DDFDD70BD800B0000C4000020C0
:4002400070B50500002412E0802323412B4203D0012000F093FA02E0002000F08FFA012000F080FA002000F07DFA0134E4B2072CEAD970BD70B50C001500072806D9FF206B
:40028000FFF7DEFFFF20FFF7DBFF1CE001238340D843C0B2FFF7D4FF002D08D00A4B1C192823E35C7F201840FFF7CAFF05E0064B1C192823E05CFFF7C3FF012000F046FA79
:4002C000002000F043FA70BD800B000010B5094C2078094B1B18197B0022FFF7CBFF23780133DBB22370072B02D90022014B1A7010BDC04674010020C400002010B5084BF2
:40030000DC7C072306E05A1E05498818007BCB1818731300042BF6DC014B1C7410BDC046C400002070B562B600F06EF9544800F09DF9FFF74FFF00250C24FFF759FF514B26
:400340001B78002B05D1012C03D001214D4A11730124012B02D1012C00D10B34494B5B78002B05D1022C03D00221464A11730224012B02D1022C00D10A34424B9B78002B7E
:4003800005D1032C03D003213E4A11730324012B02D1032C00D109343A4BDB78002B05D1042C03D00421374A11730424012B02D1042C00D10834334B1B79002B05D1052C24
:4003C00003D005212F4A11730524012B02D1052C00D107342B4B5B79002B05D1062C03D00621284A11730624012B02D1062C00D10634244B9B79002B05D1072C03D007211D
:40040000204A11730724012B02D1072C00D105341C4BDB79002B05D1082C03D00821194A11730824012B02D1082C00D10434154B1B7A002B05D1092C03D00921114A117325
:400440000924012B02D1092C00D103340D4B9B7A002B05D1002C03D000210A4A11730024012B02D1002C00D10C340135312D02D9FFF744FF00250A2000F0AAF95DE7C04679
:40048000CD020000C4000020F0B50025002711E0BB00C658F3B2FF22964308E06A008A181478A419527822700135013BDBB2002BF4D10137072FEBD9F0BDC04610B50A00F3
:4004C000002100F053FB10BD10B500F023FB03680C2B00D1FEE7FEE770B50F4E0F4D13E029686B68AC68002202E001C901C30432A242FAD1E868002202E0002102C3043290
:400500008242FAD11035013E002EE9D100F008FBFFF708FFFEE7C04601000000140D000010B500230AE0032B03D89A000949505800E009489900094A885001332F2BF2D906
:40054000FFF798FD8022D205116801230B43136010BDC04600000000C904000000000020034A117880235B420B43DBB21370704771000F40014B18707047C04682000F400C
:40058000014B1878C0B2704762000F4010B50100014800F0F1F910BD20000F4010B5024800F0F4F910BDC04640000F4010B50100014800F0E1F910BD00000F4010B501E077
:4005C000FFF7ECFFFFF7DCFF0307F9D410BDC04610B50B4C2000FFF7D9FF2000FFF7E6FF00F090FA074A117810230B43DBB2137000F08CFAFFF7E2FF0020FFF7BBFF10BDCB
:40060000BF5D000092000F4010B5064B1B78002B04D1FFF7DDFF0122024B1A70FFF7A0FF10BDC04675010020014B18647047C0460000002010B5040000F064FA044A1368C5
:40064000C0218B43A4011C43146000F05FFA10BD00E400E00122014B1A60704700E100E00122014B1A60704780E100E010B50400FFF7F6FF2000FFF7D7FF0320FFF7DAFFA5
:40068000FFF7E8FF10BDC046024B1868400801231840704704010440024B1868800801231840704704010440024B1868C00801231840704704010440024B1868000901231D
:4006C0001840704704010440034A136807218B43184310607047C04608000440044A1368DBB201218B430840184310607047C04600000440034A136838218B43C0001843AC
:40070000106070470800044004490A68D2B202239A434000184010430860704700000440034A136807218B43184310607047C04608010440044A1368DBB201218B43084092
:40074000184310607047C0460001044004490A68D2B240239A43800118401043086070470002044004490A68D2B240239A438001184010430860704700000440044A1368BD
:40078000DBB201218B430840184310607047C046000304401F2318401E3B8340014A13607047C04600E100E001BE704770B504000D001F2802D90020FFF7F6FF1034A400F2
:4007C00080239B059C4664442068256070BDC04610B5040006E0084B586800F089F9074B9C46644480231B029C42F4D8024B9868604300F07DF910BDD80000200080FFFFD9
:4008000010B5034B1B7B584300F072F910BDC046D8000020F0B557464E46C0B483B0040000F070F90190E71E2D2F74D83F4B1B78DBB29C4208D83E4B1B78DBB29A463D4BBD
:400840001B78DBB2994631E03B4B1B78DBB29C4208D83A4B1B78DBB29A46394B1B78DBB2994623E0374B1B78DBB29C4208D8364B1B78DBB29A46354B1B78DBB2994615E0A4
:40088000334B1B78DBB29C4208D8324B1B78DBB29A46314B1B78DBB2994607E02F4B1B78DBB29A462E4B1B78DBB299462D4BDE5D2F2E09D92A2C07D919222B4B1A60052093
:4008C00000F016F9192503E0274B1D683F231D40B54206D9234BDA5D234B1A60052000F007F91F4B9C4664442378DBB21F4A13601F4B52461A601F4B4A461A600520FFF7A7
:400900007FFFB5420AD2174BDA5D174B1A60052000F0EEF802E00020FFF746FF019800F0F5F803B00CBC91469A46F0BDC0F1FF0FC1F1FF0FC2F1FF0FC3F1FF0FC4F1FF0F9F
:40094000C5F1FF0FC6F1FF0FC7F1FF0FC8F1FF0FC9F1FF0FCAF1FF0FCBF1FF0FCCF1FF0FCDF1FF0FC00C00002CFF0B4028FF0B401CFF0B4020FF0B40CBB203700B0ADBB259
:400980004370090CC9B281707047C0460378427812021A4383781B041A4310007047C046034B1868C0231B02184000D00120704700010B4010B500F0A5F8044A1368C02146
:4009C00009020B43136000F0A1F810BD00010B4010B500F097F808490A68084B1A408024E40122430A600A6813408022120213430B6000F08BF810BD00010B40FF3FFFFF79
:400A000070B5050000F07EF80400FFF7C9FF002803D0FFF7DDFF012100E0002108482840084A1568084B2B40184310601368012901D1FFF7BFFF200000F068F870BDC04696
:400A40000404040010020B40FBFBFBFF10B5244B1B685B0715D5234B1B685B070ED5224BD969042001401F4C22688A432260DA698243DA611B69002B00D098470420FFF7D1
:400A8000BFFF174B1B685B0518D5164B1B685B0510D5154BD9698022D2001140114802688A430260D969114A0A40DA615B69002B00D098478020C000FFF7A2FF084B1B6837
:400AC0005B030CD5074B1B685B0304D5064B9B69002B00D098478020C002FFF791FF10BD10020B40EC00002078010020FFFBFFFF0230800804D0C0460138FDD1C046C04626
:400B0000C0467047EFF3108072B6704780F310887047C046014B18687047C046500100200E4B70B500251E000D4CE41AA410A54204D0AB00F35898470135F8E700F0D8F8B4
:400B4000084B00251E00084CE41AA410A54204D0AB00F35898470135F8E770BDFC0C0000FC0C0000FC0C0000040D000003008218934202D019700133FAE770470000000045
:400B8000C9060000F506000021070000DD06000009070000350700008906000099060000A9060000B9060000C0F9A4B0999282F88090BF8883C6A1868E00000000300F40F2
:400BC000000400400F400004820D405149FF4AFF4BFF4F0150185A045D095F016040624064406540668068806A806C806E80C041C9FFCAFFCBFFCD83CE03CF01D018D280E3
:400C0000DA04DB04DD99DF01E040E240E440E540E680E880EA80EC80EE80420246824801740176807780D098D2080E012E01300136013E01404145EC4720482349FF4AFF11
:400C40004BFF4D834E034F015018540158045A045B045C095D995F016040624064406540668068806A806C806E80060217801E801F8046824D044F0156025D045E805F01CF
:400C800087809A809B809E02C080C480D090D6D06F20DA808720A720E61002011101000001000F4028300F4008310F4020320F4013330F4002400F4003410F4002600F40E2
:400CC000030405060708090A0B0C0E0F101112131415161718191B1C1D1E1F2021222325262728292A2B2E2F3031323334354300F8B5C046F8BC08BC9E4670479D0100005D
:400D000021050000F8B5C046F8BC08BC9E46704775010000280D0000C0000020980000004000000000000000000000000102030405060708090A000B070605040302010006
:400D4000010000000000E02EC05D00001800000000366E01040404000000000000000000000000000000000000000000000000000000000000000000EE0C00000000000084
:400D80000000000000000000000000000000000000000000000000000000000000000000000000000000000000000000000000000000000000000000F00000200000000023
:400DC00000000000000000000000000000000000000000000000000000000000000000000000000000000000000000000000000000000000000000000000000000000000F3
:400E000000000000000000000000000000000000000000000000000000000000000000000000000000000000000000000000000000000000000000000000000000000000B2
:400E40000000000000000000000000000000000000000000000000000000000000000000000000000000000000000000000000000000000000000000000000000000000072
:400E80000000000000000000000000000000000000000000000000000000000000000000000000000000000000000000000000000000000000000000000000000000000032
:0200000490303A
:0200000063217A
:0200000490402A
:200000000000000000000000000000000000000000000000000000000000000000000000E0
:0200000490501A
:0C000000000204C81193110104CC74B478
:0200000490600A
:0100000001FE
:00000001FF